{
  "_format": "hh-sol-artifact-1",
  "contractName": "Vuna",
  "sourceName": "contracts/Vuna.sol",
  "abi": [
    {
      "inputs": [
        {
          "internalType": "address[]",
          "name": "_initialDepositTokens",
          "type": "address[]"
        },
        {
          "internalType": "address",
          "name": "_automate",
          "type": "address"
        },
        {
          "internalType": "address",
          "name": "_lendingPool",
          "type": "address"
        }
      ],
      "stateMutability": "nonpayable",
      "type": "constructor"
    },
    {
      "inputs": [],
      "name": "ERC721EnumerableForbiddenBatchMint",
      "type": "error"
    },
    {
      "inputs": [
        {
          "internalType": "address",
          "name": "sender",
          "type": "address"
        },
        {
          "internalType": "uint256",
          "name": "tokenId",
          "type": "uint256"
        },
        {
          "internalType": "address",
          "name": "owner",
          "type": "address"
        }
      ],
      "name": "ERC721IncorrectOwner",
      "type": "error"
    },
    {
      "inputs": [
        {
          "internalType": "address",
          "name": "operator",
          "type": "address"
        },
        {
          "internalType": "uint256",
          "name": "tokenId",
          "type": "uint256"
        }
      ],
      "name": "ERC721InsufficientApproval",
      "type": "error"
    },
    {
      "inputs": [
        {
          "internalType": "address",
          "name": "approver",
          "type": "address"
        }
      ],
      "name": "ERC721InvalidApprover",
      "type": "error"
    },
    {
      "inputs": [
        {
          "internalType": "address",
          "name": "operator",
          "type": "address"
        }
      ],
      "name": "ERC721InvalidOperator",
      "type": "error"
    },
    {
      "inputs": [
        {
          "internalType": "address",
          "name": "owner",
          "type": "address"
        }
      ],
      "name": "ERC721InvalidOwner",
      "type": "error"
    },
    {
      "inputs": [
        {
          "internalType": "address",
          "name": "receiver",
          "type": "address"
        }
      ],
      "name": "ERC721InvalidReceiver",
      "type": "error"
    },
    {
      "inputs": [
        {
          "internalType": "address",
          "name": "sender",
          "type": "address"
        }
      ],
      "name": "ERC721InvalidSender",
      "type": "error"
    },
    {
      "inputs": [
        {
          "internalType": "uint256",
          "name": "tokenId",
          "type": "uint256"
        }
      ],
      "name": "ERC721NonexistentToken",
      "type": "error"
    },
    {
      "inputs": [
        {
          "internalType": "address",
          "name": "owner",
          "type": "address"
        },
        {
          "internalType": "uint256",
          "name": "index",
          "type": "uint256"
        }
      ],
      "name": "ERC721OutOfBoundsIndex",
      "type": "error"
    },
    {
      "inputs": [
        {
          "internalType": "address",
          "name": "token",
          "type": "address"
        }
      ],
      "name": "SafeERC20FailedOperation",
      "type": "error"
    },
    {
      "anonymous": false,
      "inputs": [
        {
          "indexed": true,
          "internalType": "address",
          "name": "owner",
          "type": "address"
        },
        {
          "indexed": true,
          "internalType": "address",
          "name": "approved",
          "type": "address"
        },
        {
          "indexed": true,
          "internalType": "uint256",
          "name": "tokenId",
          "type": "uint256"
        }
      ],
      "name": "Approval",
      "type": "event"
    },
    {
      "anonymous": false,
      "inputs": [
        {
          "indexed": true,
          "internalType": "address",
          "name": "owner",
          "type": "address"
        },
        {
          "indexed": true,
          "internalType": "address",
          "name": "operator",
          "type": "address"
        },
        {
          "indexed": false,
          "internalType": "bool",
          "name": "approved",
          "type": "bool"
        }
      ],
      "name": "ApprovalForAll",
      "type": "event"
    },
    {
      "anonymous": false,
      "inputs": [
        {
          "indexed": true,
          "internalType": "address",
          "name": "saver",
          "type": "address"
        },
        {
          "indexed": true,
          "internalType": "uint256",
          "name": "goalId",
          "type": "uint256"
        }
      ],
      "name": "AutomatedDepositCanceled",
      "type": "event"
    },
    {
      "anonymous": false,
      "inputs": [
        {
          "indexed": true,
          "internalType": "address",
          "name": "saver",
          "type": "address"
        },
        {
          "indexed": true,
          "internalType": "uint256",
          "name": "goalId",
          "type": "uint256"
        },
        {
          "indexed": false,
          "internalType": "uint256",
          "name": "amount",
          "type": "uint256"
        },
        {
          "indexed": false,
          "internalType": "uint256",
          "name": "frequency",
          "type": "uint256"
        }
      ],
      "name": "AutomatedDepositCreated",
      "type": "event"
    },
    {
      "anonymous": false,
      "inputs": [
        {
          "indexed": true,
          "internalType": "address",
          "name": "saver",
          "type": "address"
        },
        {
          "indexed": true,
          "internalType": "uint256",
          "name": "goalId",
          "type": "uint256"
        },
        {
          "indexed": false,
          "internalType": "uint256",
          "name": "amount",
          "type": "uint256"
        }
      ],
      "name": "DepositMade",
      "type": "event"
    },
    {
      "anonymous": false,
      "inputs": [
        {
          "indexed": true,
          "internalType": "address",
          "name": "saver",
          "type": "address"
        },
        {
          "indexed": true,
          "internalType": "uint256",
          "name": "goalId",
          "type": "uint256"
        },
        {
          "indexed": false,
          "internalType": "uint256",
          "name": "targetAmount",
          "type": "uint256"
        }
      ],
      "name": "GoalCompleted",
      "type": "event"
    },
    {
      "anonymous": false,
      "inputs": [
        {
          "indexed": true,
          "internalType": "address",
          "name": "saver",
          "type": "address"
        },
        {
          "indexed": true,
          "internalType": "uint256",
          "name": "goalId",
          "type": "uint256"
        },
        {
          "indexed": false,
          "internalType": "string",
          "name": "what",
          "type": "string"
        },
        {
          "indexed": false,
          "internalType": "string",
          "name": "why",
          "type": "string"
        },
        {
          "indexed": false,
          "internalType": "uint256",
          "name": "targetAmount",
          "type": "uint256"
        },
        {
          "indexed": false,
          "internalType": "uint256",
          "name": "targetDate",
          "type": "uint256"
        },
        {
          "indexed": false,
          "internalType": "address",
          "name": "depositToken",
          "type": "address"
        }
      ],
      "name": "GoalCreated",
      "type": "event"
    },
    {
      "anonymous": false,
      "inputs": [
        {
          "indexed": true,
          "internalType": "address",
          "name": "saver",
          "type": "address"
        },
        {
          "indexed": true,
          "internalType": "uint256",
          "name": "goalId",
          "type": "uint256"
        }
      ],
      "name": "GoalDeleted",
      "type": "event"
    },
    {
      "anonymous": false,
      "inputs": [
        {
          "indexed": true,
          "internalType": "address",
          "name": "from",
          "type": "address"
        },
        {
          "indexed": true,
          "internalType": "address",
          "name": "to",
          "type": "address"
        },
        {
          "indexed": true,
          "internalType": "uint256",
          "name": "tokenId",
          "type": "uint256"
        }
      ],
      "name": "Transfer",
      "type": "event"
    },
    {
      "anonymous": false,
      "inputs": [
        {
          "indexed": true,
          "internalType": "address",
          "name": "depositToken",
          "type": "address"
        },
        {
          "indexed": true,
          "internalType": "address",
          "name": "VunaVault",
          "type": "address"
        }
      ],
      "name": "VunaVaultCreated",
      "type": "event"
    },
    {
      "anonymous": false,
      "inputs": [
        {
          "indexed": true,
          "internalType": "address",
          "name": "saver",
          "type": "address"
        },
        {
          "indexed": true,
          "internalType": "uint256",
          "name": "goalId",
          "type": "uint256"
        },
        {
          "indexed": false,
          "internalType": "uint256",
          "name": "amount",
          "type": "uint256"
        }
      ],
      "name": "WithdrawMade",
      "type": "event"
    },
    {
      "inputs": [
        {
          "internalType": "address",
          "name": "to",
          "type": "address"
        },
        {
          "internalType": "uint256",
          "name": "tokenId",
          "type": "uint256"
        }
      ],
      "name": "approve",
      "outputs": [],
      "stateMutability": "nonpayable",
      "type": "function"
    },
    {
      "inputs": [],
      "name": "automate",
      "outputs": [
        {
          "internalType": "contract IAutomate",
          "name": "",
          "type": "address"
        }
      ],
      "stateMutability": "view",
      "type": "function"
    },
    {
      "inputs": [
        {
          "internalType": "uint256",
          "name": "goalId",
          "type": "uint256"
        },
        {
          "internalType": "uint256",
          "name": "amount",
          "type": "uint256"
        },
        {
          "internalType": "uint256",
          "name": "frequency",
          "type": "uint256"
        }
      ],
      "name": "automateDeposit",
      "outputs": [],
      "stateMutability": "nonpayable",
      "type": "function"
    },
    {
      "inputs": [
        {
          "internalType": "uint256",
          "name": "goalId",
          "type": "uint256"
        }
      ],
      "name": "automatedDeposit",
      "outputs": [],
      "stateMutability": "nonpayable",
      "type": "function"
    },
    {
      "inputs": [
        {
          "internalType": "uint256",
          "name": "",
          "type": "uint256"
        }
      ],
      "name": "automatedDeposits",
      "outputs": [
        {
          "internalType": "uint256",
          "name": "amount",
          "type": "uint256"
        },
        {
          "internalType": "uint256",
          "name": "frequency",
          "type": "uint256"
        },
        {
          "internalType": "uint256",
          "name": "lastDeposit",
          "type": "uint256"
        },
        {
          "internalType": "bytes32",
          "name": "gelatoTaskId",
          "type": "bytes32"
        }
      ],
      "stateMutability": "view",
      "type": "function"
    },
    {
      "inputs": [
        {
          "internalType": "address",
          "name": "owner",
          "type": "address"
        }
      ],
      "name": "balanceOf",
      "outputs": [
        {
          "internalType": "uint256",
          "name": "",
          "type": "uint256"
        }
      ],
      "stateMutability": "view",
      "type": "function"
    },
    {
      "inputs": [
        {
          "internalType": "uint256",
          "name": "_goalId",
          "type": "uint256"
        }
      ],
      "name": "balanceOf",
      "outputs": [
        {
          "internalType": "uint256",
          "name": "",
          "type": "uint256"
        }
      ],
      "stateMutability": "view",
      "type": "function"
    },
    {
      "inputs": [
        {
          "internalType": "uint256",
          "name": "goalId",
          "type": "uint256"
        }
      ],
      "name": "cancelAutomatedDeposit",
      "outputs": [],
      "stateMutability": "nonpayable",
      "type": "function"
    },
    {
      "inputs": [],
      "name": "dedicatedMsgSender",
      "outputs": [
        {
          "internalType": "address",
          "name": "",
          "type": "address"
        }
      ],
      "stateMutability": "view",
      "type": "function"
    },
    {
      "inputs": [
        {
          "internalType": "uint256",
          "name": "goalId",
          "type": "uint256"
        },
        {
          "internalType": "uint256",
          "name": "amount",
          "type": "uint256"
        }
      ],
      "name": "deposit",
      "outputs": [],
      "stateMutability": "nonpayable",
      "type": "function"
    },
    {
      "inputs": [
        {
          "internalType": "uint256",
          "name": "amount",
          "type": "uint256"
        },
        {
          "internalType": "address",
          "name": "token",
          "type": "address"
        }
      ],
      "name": "depositFundsTo1Balance",
      "outputs": [],
      "stateMutability": "nonpayable",
      "type": "function"
    },
    {
      "inputs": [],
      "name": "gelato1Balance",
      "outputs": [
        {
          "internalType": "contract IGelato1Balance",
          "name": "",
          "type": "address"
        }
      ],
      "stateMutability": "view",
      "type": "function"
    },
    {
      "inputs": [
        {
          "internalType": "uint256",
          "name": "tokenId",
          "type": "uint256"
        }
      ],
      "name": "getApproved",
      "outputs": [
        {
          "internalType": "address",
          "name": "",
          "type": "address"
        }
      ],
      "stateMutability": "view",
      "type": "function"
    },
    {
      "inputs": [
        {
          "internalType": "address",
          "name": "owner",
          "type": "address"
        },
        {
          "internalType": "address",
          "name": "operator",
          "type": "address"
        }
      ],
      "name": "isApprovedForAll",
      "outputs": [
        {
          "internalType": "bool",
          "name": "",
          "type": "bool"
        }
      ],
      "stateMutability": "view",
      "type": "function"
    },
    {
      "inputs": [],
      "name": "lendingPool",
      "outputs": [
        {
          "internalType": "contract IPool",
          "name": "",
          "type": "address"
        }
      ],
      "stateMutability": "view",
      "type": "function"
    },
    {
      "inputs": [],
      "name": "name",
      "outputs": [
        {
          "internalType": "string",
          "name": "",
          "type": "string"
        }
      ],
      "stateMutability": "view",
      "type": "function"
    },
    {
      "inputs": [
        {
          "internalType": "uint256",
          "name": "tokenId",
          "type": "uint256"
        }
      ],
      "name": "ownerOf",
      "outputs": [
        {
          "internalType": "address",
          "name": "",
          "type": "address"
        }
      ],
      "stateMutability": "view",
      "type": "function"
    },
    {
      "inputs": [
        {
          "internalType": "address",
          "name": "from",
          "type": "address"
        },
        {
          "internalType": "address",
          "name": "to",
          "type": "address"
        },
        {
          "internalType": "uint256",
          "name": "tokenId",
          "type": "uint256"
        }
      ],
      "name": "safeTransferFrom",
      "outputs": [],
      "stateMutability": "nonpayable",
      "type": "function"
    },
    {
      "inputs": [
        {
          "internalType": "address",
          "name": "from",
          "type": "address"
        },
        {
          "internalType": "address",
          "name": "to",
          "type": "address"
        },
        {
          "internalType": "uint256",
          "name": "tokenId",
          "type": "uint256"
        },
        {
          "internalType": "bytes",
          "name": "data",
          "type": "bytes"
        }
      ],
      "name": "safeTransferFrom",
      "outputs": [],
      "stateMutability": "nonpayable",
      "type": "function"
    },
    {
      "inputs": [
        {
          "internalType": "uint256",
          "name": "",
          "type": "uint256"
        }
      ],
      "name": "savingsGoals",
      "outputs": [
        {
          "internalType": "string",
          "name": "what",
          "type": "string"
        },
        {
          "internalType": "string",
          "name": "why",
          "type": "string"
        },
        {
          "internalType": "uint256",
          "name": "targetAmount",
          "type": "uint256"
        },
        {
          "internalType": "uint256",
          "name": "currentAmount",
          "type": "uint256"
        },
        {
          "internalType": "uint256",
          "name": "targetDate",
          "type": "uint256"
        },
        {
          "internalType": "address",
          "name": "depositToken",
          "type": "address"
        },
        {
          "internalType": "bool",
          "name": "complete",
          "type": "bool"
        }
      ],
      "stateMutability": "view",
      "type": "function"
    },
    {
      "inputs": [
        {
          "internalType": "address",
          "name": "operator",
          "type": "address"
        },
        {
          "internalType": "bool",
          "name": "approved",
          "type": "bool"
        }
      ],
      "name": "setApprovalForAll",
      "outputs": [],
      "stateMutability": "nonpayable",
      "type": "function"
    },
    {
      "inputs": [
        {
          "internalType": "string",
          "name": "what",
          "type": "string"
        },
        {
          "internalType": "string",
          "name": "why",
          "type": "string"
        },
        {
          "internalType": "uint256",
          "name": "targetAmount",
          "type": "uint256"
        },
        {
          "internalType": "uint256",
          "name": "targetDate",
          "type": "uint256"
        },
        {
          "internalType": "address",
          "name": "depositToken",
          "type": "address"
        }
      ],
      "name": "setGoal",
      "outputs": [],
      "stateMutability": "nonpayable",
      "type": "function"
    },
    {
      "inputs": [
        {
          "internalType": "bytes4",
          "name": "interfaceId",
          "type": "bytes4"
        }
      ],
      "name": "supportsInterface",
      "outputs": [
        {
          "internalType": "bool",
          "name": "",
          "type": "bool"
        }
      ],
      "stateMutability": "view",
      "type": "function"
    },
    {
      "inputs": [],
      "name": "symbol",
      "outputs": [
        {
          "internalType": "string",
          "name": "",
          "type": "string"
        }
      ],
      "stateMutability": "view",
      "type": "function"
    },
    {
      "inputs": [
        {
          "internalType": "uint256",
          "name": "index",
          "type": "uint256"
        }
      ],
      "name": "tokenByIndex",
      "outputs": [
        {
          "internalType": "uint256",
          "name": "",
          "type": "uint256"
        }
      ],
      "stateMutability": "view",
      "type": "function"
    },
    {
      "inputs": [
        {
          "internalType": "address",
          "name": "owner",
          "type": "address"
        },
        {
          "internalType": "uint256",
          "name": "index",
          "type": "uint256"
        }
      ],
      "name": "tokenOfOwnerByIndex",
      "outputs": [
        {
          "internalType": "uint256",
          "name": "",
          "type": "uint256"
        }
      ],
      "stateMutability": "view",
      "type": "function"
    },
    {
      "inputs": [
        {
          "internalType": "uint256",
          "name": "tokenId",
          "type": "uint256"
        }
      ],
      "name": "tokenURI",
      "outputs": [
        {
          "internalType": "string",
          "name": "",
          "type": "string"
        }
      ],
      "stateMutability": "view",
      "type": "function"
    },
    {
      "inputs": [],
      "name": "totalSupply",
      "outputs": [
        {
          "internalType": "uint256",
          "name": "",
          "type": "uint256"
        }
      ],
      "stateMutability": "view",
      "type": "function"
    },
    {
      "inputs": [
        {
          "internalType": "address",
          "name": "from",
          "type": "address"
        },
        {
          "internalType": "address",
          "name": "to",
          "type": "address"
        },
        {
          "internalType": "uint256",
          "name": "tokenId",
          "type": "uint256"
        }
      ],
      "name": "transferFrom",
      "outputs": [],
      "stateMutability": "nonpayable",
      "type": "function"
    },
    {
      "inputs": [
        {
          "internalType": "address",
          "name": "",
          "type": "address"
        }
      ],
      "name": "vunaVaults",
      "outputs": [
        {
          "internalType": "contract VunaVault",
          "name": "",
          "type": "address"
        }
      ],
      "stateMutability": "view",
      "type": "function"
    },
    {
      "inputs": [
        {
          "internalType": "uint256",
          "name": "goalId",
          "type": "uint256"
        }
      ],
      "name": "withdraw",
      "outputs": [],
      "stateMutability": "nonpayable",
      "type": "function"
    }
  ],
  "bytecode": "0x60e06040523480156200001157600080fd5b50604051620097d8380380620097d88339818101604052810190620000379190620007a3565b8180306040518060400160405280600481526020017f76756e61000000000000000000000000000000000000000000000000000000008152506040518060400160405280600481526020017f56554e41000000000000000000000000000000000000000000000000000000008152508160009081620000b7919062000a69565b508060019081620000c9919062000a69565b5050508173ffffffffffffffffffffffffffffffffffffffff1660808173ffffffffffffffffffffffffffffffffffffffff168152505060008273ffffffffffffffffffffffffffffffffffffffff1663573ea5756040518163ffffffff1660e01b8152600401602060405180830381865afa1580156200014e573d6000803e3d6000fd5b505050506040513d601f19601f8201168201806040525081019062000174919062000b95565b90508073ffffffffffffffffffffffffffffffffffffffff1663c415b95c6040518163ffffffff1660e01b8152600401602060405180830381865afa158015620001c2573d6000803e3d6000fd5b505050506040513d601f19601f82011682018060405250810190620001e8919062000bc7565b73ffffffffffffffffffffffffffffffffffffffff1660c08173ffffffffffffffffffffffffffffffffffffffff168152505060008373ffffffffffffffffffffffffffffffffffffffff1663cd3d4fb960026040518263ffffffff1660e01b815260040162000259919062000c79565b602060405180830381865afa15801562000277573d6000803e3d6000fd5b505050506040513d601f19601f820116820180604052508101906200029d919062000bc7565b905060008173ffffffffffffffffffffffffffffffffffffffff1663ba1d0ff46040518163ffffffff1660e01b8152600401602060405180830381865afa158015620002ed573d6000803e3d6000fd5b505050506040513d601f19601f8201168201806040525081019062000313919062000bc7565b90508073ffffffffffffffffffffffffffffffffffffffff1663ded89a7c856040518263ffffffff1660e01b815260040162000350919062000ca7565b6040805180830381865afa1580156200036d573d6000803e3d6000fd5b505050506040513d601f19601f8201168201806040525081019062000393919062000d01565b508073ffffffffffffffffffffffffffffffffffffffff1660a09073ffffffffffffffffffffffffffffffffffffffff16815250505050505050506001600a8190555060005b83518110156200041f5762000411848281518110620003fd57620003fc62000d48565b5b60200260200101516200046a60201b60201c565b8080600101915050620003d9565b5080600c60006101000a81548173ffffffffffffffffffffffffffffffffffffffff021916908373ffffffffffffffffffffffffffffffffffffffff16021790555050505062000e2a565b600081600c60009054906101000a900473ffffffffffffffffffffffffffffffffffffffff166040516200049e90620005a7565b620004ab92919062000dfd565b604051809103906000f080158015620004c8573d6000803e3d6000fd5b50905080600d60008473ffffffffffffffffffffffffffffffffffffffff1673ffffffffffffffffffffffffffffffffffffffff16815260200190815260200160002060006101000a81548173ffffffffffffffffffffffffffffffffffffffff021916908373ffffffffffffffffffffffffffffffffffffffff1602179055508073ffffffffffffffffffffffffffffffffffffffff168273ffffffffffffffffffffffffffffffffffffffff167fd51123b3018d08518a17086b5934dc34687e7713b5c11373ca760917bdf3f60960405160405180910390a35050565b612d558062006a8383390190565b6000604051905090565b600080fd5b600080fd5b600080fd5b6000601f19601f8301169050919050565b7f4e487b7100000000000000000000000000000000000000000000000000000000600052604160045260246000fd5b6200061982620005ce565b810181811067ffffffffffffffff821117156200063b576200063a620005df565b5b80604052505050565b600062000650620005b5565b90506200065e82826200060e565b919050565b600067ffffffffffffffff821115620006815762000680620005df565b5b602082029050602081019050919050565b600080fd5b600073ffffffffffffffffffffffffffffffffffffffff82169050919050565b6000620006c48262000697565b9050919050565b620006d681620006b7565b8114620006e257600080fd5b50565b600081519050620006f681620006cb565b92915050565b6000620007136200070d8462000663565b62000644565b9050808382526020820190506020840283018581111562000739576200073862000692565b5b835b81811015620007665780620007518882620006e5565b8452602084019350506020810190506200073b565b5050509392505050565b600082601f830112620007885762000787620005c9565b5b81516200079a848260208601620006fc565b91505092915050565b600080600060608486031215620007bf57620007be620005bf565b5b600084015167ffffffffffffffff811115620007e057620007df620005c4565b5b620007ee8682870162000770565b93505060206200080186828701620006e5565b92505060406200081486828701620006e5565b9150509250925092565b600081519050919050565b7f4e487b7100000000000000000000000000000000000000000000000000000000600052602260045260246000fd5b600060028204905060018216806200087157607f821691505b60208210810362000887576200088662000829565b5b50919050565b60008190508160005260206000209050919050565b60006020601f8301049050919050565b600082821b905092915050565b600060088302620008f17fffffffffffffffffffffffffffffffffffffffffffffffffffffffffffffffff82620008b2565b620008fd8683620008b2565b95508019841693508086168417925050509392505050565b6000819050919050565b6000819050919050565b60006200094a620009446200093e8462000915565b6200091f565b62000915565b9050919050565b6000819050919050565b620009668362000929565b6200097e620009758262000951565b848454620008bf565b825550505050565b600090565b6200099562000986565b620009a28184846200095b565b505050565b5b81811015620009ca57620009be6000826200098b565b600181019050620009a8565b5050565b601f82111562000a1957620009e3816200088d565b620009ee84620008a2565b81016020851015620009fe578190505b62000a1662000a0d85620008a2565b830182620009a7565b50505b505050565b600082821c905092915050565b600062000a3e6000198460080262000a1e565b1980831691505092915050565b600062000a59838362000a2b565b9150826002028217905092915050565b62000a74826200081e565b67ffffffffffffffff81111562000a905762000a8f620005df565b5b62000a9c825462000858565b62000aa9828285620009ce565b600060209050601f83116001811462000ae1576000841562000acc578287015190505b62000ad8858262000a4b565b86555062000b48565b601f19841662000af1866200088d565b60005b8281101562000b1b5784890151825560018201915060208501945060208101905062000af4565b8683101562000b3b578489015162000b37601f89168262000a2b565b8355505b6001600288020188555050505b505050505050565b600062000b5d8262000697565b9050919050565b62000b6f8162000b50565b811462000b7b57600080fd5b50565b60008151905062000b8f8162000b64565b92915050565b60006020828403121562000bae5762000bad620005bf565b5b600062000bbe8482850162000b7e565b91505092915050565b60006020828403121562000be05762000bdf620005bf565b5b600062000bf084828501620006e5565b91505092915050565b7f4e487b7100000000000000000000000000000000000000000000000000000000600052602160045260246000fd5b6006811062000c3c5762000c3b62000bf9565b5b50565b600081905062000c4f8262000c28565b919050565b600062000c618262000c3f565b9050919050565b62000c738162000c54565b82525050565b600060208201905062000c90600083018462000c68565b92915050565b62000ca181620006b7565b82525050565b600060208201905062000cbe600083018462000c96565b92915050565b60008115159050919050565b62000cdb8162000cc4565b811462000ce757600080fd5b50565b60008151905062000cfb8162000cd0565b92915050565b6000806040838503121562000d1b5762000d1a620005bf565b5b600062000d2b85828601620006e5565b925050602062000d3e8582860162000cea565b9150509250929050565b7f4e487b7100000000000000000000000000000000000000000000000000000000600052603260045260246000fd5b600062000d9862000d9262000d8c8462000697565b6200091f565b62000697565b9050919050565b600062000dac8262000d77565b9050919050565b600062000dc08262000d9f565b9050919050565b62000dd28162000db3565b82525050565b600062000de58262000d9f565b9050919050565b62000df78162000dd8565b82525050565b600060408201905062000e14600083018562000dc7565b62000e23602083018462000dec565b9392505050565b60805160a05160c051615c1e62000e656000396000505060006108600152600081816106690152818161300901526138430152615c1e6000f3fe608060405234801561001057600080fd5b50600436106101e55760003560e01c80636352211e1161010f578063a22cb465116100a2578063c87b56dd11610071578063c87b56dd146105bd578063e2bbb158146105ed578063e985e9c514610609578063f50cbb0014610639576101e5565b8063a22cb4651461054b578063a59a997314610567578063b7fe68b814610585578063b88d4fde146105a1576101e5565b806395d89b41116100de57806395d89b41146104c557806399ff0401146104e35780639cc7f708146104ff5780639f9890bf1461052f576101e5565b80636352211e14610402578063649f9bd21461043257806370a08231146104655780638e83264c14610495576101e5565b806328f150eb1161018757806342842e0e1161015657806342842e0e1461037c5780634f6ccce71461039857806357fb1d67146103c857806358f7a04e146103e6576101e5565b806328f150eb146102dc5780632e1a7d4d146102fa5780632f745c591461031657806337c85b6f14610346576101e5565b8063081812fc116101c3578063081812fc14610256578063095ea7b31461028657806318160ddd146102a257806323b872dd146102c0576101e5565b806301ffc9a7146101ea578063049aacfe1461021a57806306fdde0314610238575b600080fd5b61020460048036038101906101ff9190613da1565b610655565b6040516102119190613de9565b60405180910390f35b610222610667565b60405161022f9190613e83565b60405180910390f35b61024061068b565b60405161024d9190613f2e565b60405180910390f35b610270600480360381019061026b9190613f86565b61071d565b60405161027d9190613fd4565b60405180910390f35b6102a0600480360381019061029b919061401b565b610739565b005b6102aa61074f565b6040516102b7919061406a565b60405180910390f35b6102da60048036038101906102d59190614085565b61075c565b005b6102e461085e565b6040516102f19190613fd4565b60405180910390f35b610314600480360381019061030f9190613f86565b610882565b005b610330600480360381019061032b919061401b565b610c1a565b60405161033d919061406a565b60405180910390f35b610360600480360381019061035b9190613f86565b610cc3565b60405161037397969594939291906140d8565b60405180910390f35b61039660048036038101906103919190614085565b610e42565b005b6103b260048036038101906103ad9190613f86565b610e62565b6040516103bf919061406a565b60405180910390f35b6103d0610ed8565b6040516103dd9190614176565b60405180910390f35b61040060048036038101906103fb9190614191565b610ef0565b005b61041c60048036038101906104179190613f86565b610eff565b6040516104299190613fd4565b60405180910390f35b61044c60048036038101906104479190613f86565b610f11565b60405161045c94939291906141ea565b60405180910390f35b61047f600480360381019061047a919061422f565b610f41565b60405161048c919061406a565b60405180910390f35b6104af60048036038101906104aa919061422f565b610ffb565b6040516104bc919061427d565b60405180910390f35b6104cd61102e565b6040516104da9190613f2e565b60405180910390f35b6104fd60048036038101906104f89190613f86565b6110c0565b005b61051960048036038101906105149190613f86565b611191565b604051610526919061406a565b60405180910390f35b61054960048036038101906105449190613f86565b611333565b005b610565600480360381019061056091906142c4565b6115a7565b005b61056f6115bd565b60405161057c9190614325565b60405180910390f35b61059f600480360381019061059a9190614475565b6115e3565b005b6105bb60048036038101906105b691906145c9565b6118cb565b005b6105d760048036038101906105d29190613f86565b6118f0565b6040516105e49190613f2e565b60405180910390f35b6106076004803603810190610602919061464c565b611959565b005b610623600480360381019061061e919061468c565b611bc2565b6040516106309190613de9565b60405180910390f35b610653600480360381019061064e91906146cc565b611c56565b005b600061066082612045565b9050919050565b7f000000000000000000000000000000000000000000000000000000000000000081565b60606000805461069a9061474e565b80601f01602080910402602001604051908101604052809291908181526020018280546106c69061474e565b80156107135780601f106106e857610100808354040283529160200191610713565b820191906000526020600020905b8154815290600101906020018083116106f657829003601f168201915b5050505050905090565b6000610728826120bf565b5061073282612147565b9050919050565b61074b8282610746612184565b61218c565b5050565b6000600880549050905090565b600073ffffffffffffffffffffffffffffffffffffffff168273ffffffffffffffffffffffffffffffffffffffff16036107ce5760006040517f64a0ae920000000000000000000000000000000000000000000000000000000081526004016107c59190613fd4565b60405180910390fd5b60006107e283836107dd612184565b61219e565b90508373ffffffffffffffffffffffffffffffffffffffff168173ffffffffffffffffffffffffffffffffffffffff1614610858578382826040517f64283d7b00000000000000000000000000000000000000000000000000000000815260040161084f9392919061477f565b60405180910390fd5b50505050565b7f000000000000000000000000000000000000000000000000000000000000000081565b8061088d600b6122bb565b81106108ce576040517f08c379a00000000000000000000000000000000000000000000000000000000081526004016108c590614802565b60405180910390fd5b816108d881610eff565b73ffffffffffffffffffffffffffffffffffffffff163373ffffffffffffffffffffffffffffffffffffffff1614610945576040517f08c379a000000000000000000000000000000000000000000000000000000000815260040161093c90614894565b60405180910390fd5b61094d6122c9565b6000600e6000858152602001908152602001600020905060008160030154116109ab576040517f08c379a00000000000000000000000000000000000000000000000000000000081526004016109a290614900565b60405180910390fd5b6000600d60008360050160009054906101000a900473ffffffffffffffffffffffffffffffffffffffff1673ffffffffffffffffffffffffffffffffffffffff1673ffffffffffffffffffffffffffffffffffffffff16815260200190815260200160002060009054906101000a900473ffffffffffffffffffffffffffffffffffffffff16905060008173ffffffffffffffffffffffffffffffffffffffff166370a08231306040518263ffffffff1660e01b8152600401610a6e9190613fd4565b602060405180830381865afa158015610a8b573d6000803e3d6000fd5b505050506040513d601f19601f82011682018060405250810190610aaf9190614935565b905060008273ffffffffffffffffffffffffffffffffffffffff166307a2d13a836040518263ffffffff1660e01b8152600401610aec919061406a565b602060405180830381865afa158015610b09573d6000803e3d6000fd5b505050506040513d601f19601f82011682018060405250810190610b2d9190614935565b90508273ffffffffffffffffffffffffffffffffffffffff1663b460af948233306040518463ffffffff1660e01b8152600401610b6c93929190614962565b6020604051808303816000875af1158015610b8b573d6000803e3d6000fd5b505050506040513d601f19601f82011682018060405250810190610baf9190614935565b5060008460030181905550863373ffffffffffffffffffffffffffffffffffffffff167fda86f30ac88f8977420f2229a60b6bb7f4e6ce3c21db9d8dd5f879f88ac4aeb583604051610c01919061406a565b60405180910390a350505050610c15612318565b505050565b6000610c2583610f41565b8210610c6a5782826040517fa57d13dc000000000000000000000000000000000000000000000000000000008152600401610c61929190614999565b60405180910390fd5b600660008473ffffffffffffffffffffffffffffffffffffffff1673ffffffffffffffffffffffffffffffffffffffff168152602001908152602001600020600083815260200190815260200160002054905092915050565b600e602052806000526040600020600091509050806000018054610ce69061474e565b80601f0160208091040260200160405190810160405280929190818152602001828054610d129061474e565b8015610d5f5780601f10610d3457610100808354040283529160200191610d5f565b820191906000526020600020905b815481529060010190602001808311610d4257829003601f168201915b505050505090806001018054610d749061474e565b80601f0160208091040260200160405190810160405280929190818152602001828054610da09061474e565b8015610ded5780601f10610dc257610100808354040283529160200191610ded565b820191906000526020600020905b815481529060010190602001808311610dd057829003601f168201915b5050505050908060020154908060030154908060040154908060050160009054906101000a900473ffffffffffffffffffffffffffffffffffffffff16908060050160149054906101000a900460ff16905087565b610e5d838383604051806020016040528060008152506118cb565b505050565b6000610e6c61074f565b8210610eb2576000826040517fa57d13dc000000000000000000000000000000000000000000000000000000008152600401610ea9929190614999565b60405180910390fd5b60088281548110610ec657610ec56149c2565b5b90600052602060002001549050919050565b737506c12a824d73d9b08564d5afc22c949434755e81565b610efb828233612322565b5050565b6000610f0a826120bf565b9050919050565b600f6020528060005260406000206000915090508060000154908060010154908060020154908060030154905084565b60008073ffffffffffffffffffffffffffffffffffffffff168273ffffffffffffffffffffffffffffffffffffffff1603610fb45760006040517f89c62b64000000000000000000000000000000000000000000000000000000008152600401610fab9190613fd4565b60405180910390fd5b600360008373ffffffffffffffffffffffffffffffffffffffff1673ffffffffffffffffffffffffffffffffffffffff168152602001908152602001600020549050919050565b600d6020528060005260406000206000915054906101000a900473ffffffffffffffffffffffffffffffffffffffff1681565b60606001805461103d9061474e565b80601f01602080910402602001604051908101604052809291908181526020018280546110699061474e565b80156110b65780601f1061108b576101008083540402835291602001916110b6565b820191906000526020600020905b81548152906001019060200180831161109957829003601f168201915b5050505050905090565b806110cb600b6122bb565b811061110c576040517f08c379a000000000000000000000000000000000000000000000000000000000815260040161110390614802565b60405180910390fd5b8161111681610eff565b73ffffffffffffffffffffffffffffffffffffffff163373ffffffffffffffffffffffffffffffffffffffff1614611183576040517f08c379a000000000000000000000000000000000000000000000000000000000815260040161117a90614894565b60405180910390fd5b61118c836125db565b505050565b600080600e600084815260200190815260200160002090506000600d60008360050160009054906101000a900473ffffffffffffffffffffffffffffffffffffffff1673ffffffffffffffffffffffffffffffffffffffff1673ffffffffffffffffffffffffffffffffffffffff16815260200190815260200160002060009054906101000a900473ffffffffffffffffffffffffffffffffffffffff16905060008173ffffffffffffffffffffffffffffffffffffffff166370a08231306040518263ffffffff1660e01b815260040161126c9190613fd4565b602060405180830381865afa158015611289573d6000803e3d6000fd5b505050506040513d601f19601f820116820180604052508101906112ad9190614935565b90508173ffffffffffffffffffffffffffffffffffffffff166307a2d13a826040518263ffffffff1660e01b81526004016112e8919061406a565b602060405180830381865afa158015611305573d6000803e3d6000fd5b505050506040513d601f19601f820116820180604052508101906113299190614935565b9350505050919050565b8061133e600b6122bb565b811061137f576040517f08c379a000000000000000000000000000000000000000000000000000000000815260040161137690614802565b60405180910390fd5b6000600f60008481526020019081526020016000209050600081600001549050600081116113e2576040517f08c379a00000000000000000000000000000000000000000000000000000000081526004016113d990614a63565b60405180910390fd5b816001015482600201546113f69190614ab2565b421015611438576040517f08c379a000000000000000000000000000000000000000000000000000000000815260040161142f90614b58565b60405180910390fd5b6000600e6000868152602001908152602001600020905080600201548282600301546114649190614ab2565b11156114a5576040517f08c379a000000000000000000000000000000000000000000000000000000000815260040161149c90614bea565b60405180910390fd5b6114b86114b186610eff565b82846126bf565b80600201548160030154106115405760018160050160146101000a81548160ff021916908315150217905550846114ee86610eff565b73ffffffffffffffffffffffffffffffffffffffff167f5fdb120e2225930f6b50914ed30f8f8b37a0a6c7b6df7b1f0f7f235791bfc3418360020154604051611537919061406a565b60405180910390a35b4283600201819055508461155386610eff565b73ffffffffffffffffffffffffffffffffffffffff167f0b05f0d1cd0819f155b8a61f60baf7767c1ee49d04aeaab701df236140eb93f984604051611598919061406a565b60405180910390a35050505050565b6115b96115b2612184565b8383612a86565b5050565b600c60009054906101000a900473ffffffffffffffffffffffffffffffffffffffff1681565b60008311611626576040517f08c379a000000000000000000000000000000000000000000000000000000000815260040161161d90614c7c565b60405180910390fd5b428211611668576040517f08c379a000000000000000000000000000000000000000000000000000000000815260040161165f90614d0e565b60405180910390fd5b600073ffffffffffffffffffffffffffffffffffffffff16600d60008373ffffffffffffffffffffffffffffffffffffffff1673ffffffffffffffffffffffffffffffffffffffff16815260200190815260200160002060009054906101000a900473ffffffffffffffffffffffffffffffffffffffff1673ffffffffffffffffffffffffffffffffffffffff1603611736576040517f08c379a000000000000000000000000000000000000000000000000000000000815260040161172d90614d7a565b60405180910390fd5b6000611742600b6122bb565b90506040518060e00160405280878152602001868152602001858152602001600081526020018481526020018373ffffffffffffffffffffffffffffffffffffffff16815260200160001515815250600e600083815260200190815260200160002060008201518160000190816117b99190614f3c565b5060208201518160010190816117cf9190614f3c565b5060408201518160020155606082015181600301556080820151816004015560a08201518160050160006101000a81548173ffffffffffffffffffffffffffffffffffffffff021916908373ffffffffffffffffffffffffffffffffffffffff16021790555060c08201518160050160146101000a81548160ff0219169083151502179055509050506118623382612bf5565b61186c600b612cee565b803373ffffffffffffffffffffffffffffffffffffffff167fec74249e21fd2b71b80f7694888a2f60eb90b82445c23a74a66936745aeb915388888888886040516118bb95949392919061500e565b60405180910390a3505050505050565b6118d684848461075c565b6118ea6118e1612184565b85858585612d04565b50505050565b60606118fb826120bf565b506000611906612eb5565b905060008151116119265760405180602001604052806000815250611951565b8061193084612ecc565b6040516020016119419291906150ab565b6040516020818303038152906040525b915050919050565b81611964600b6122bb565b81106119a5576040517f08c379a000000000000000000000000000000000000000000000000000000000815260040161199c90614802565b60405180910390fd5b826119af81610eff565b73ffffffffffffffffffffffffffffffffffffffff163373ffffffffffffffffffffffffffffffffffffffff1614611a1c576040517f08c379a0000000000000000000000000000000000000000000000000000000008152600401611a1390614894565b60405180910390fd5b611a246122c9565b6000600e60008681526020019081526020016000209050600073ffffffffffffffffffffffffffffffffffffffff168160050160009054906101000a900473ffffffffffffffffffffffffffffffffffffffff1673ffffffffffffffffffffffffffffffffffffffff1603611ace576040517f08c379a0000000000000000000000000000000000000000000000000000000008152600401611ac59061511b565b60405180910390fd5b8060020154848260030154611ae39190614ab2565b10611b595760018160050160146101000a81548160ff021916908315150217905550843373ffffffffffffffffffffffffffffffffffffffff167f5fdb120e2225930f6b50914ed30f8f8b37a0a6c7b6df7b1f0f7f235791bfc3418360020154604051611b50919061406a565b60405180910390a35b611b643382866126bf565b843373ffffffffffffffffffffffffffffffffffffffff167f0b05f0d1cd0819f155b8a61f60baf7767c1ee49d04aeaab701df236140eb93f986604051611bab919061406a565b60405180910390a350611bbc612318565b50505050565b6000600560008473ffffffffffffffffffffffffffffffffffffffff1673ffffffffffffffffffffffffffffffffffffffff16815260200190815260200160002060008373ffffffffffffffffffffffffffffffffffffffff1673ffffffffffffffffffffffffffffffffffffffff16815260200190815260200160002060009054906101000a900460ff16905092915050565b82611c61600b6122bb565b8110611ca2576040517f08c379a0000000000000000000000000000000000000000000000000000000008152600401611c9990614802565b60405180910390fd5b60008311611ce5576040517f08c379a0000000000000000000000000000000000000000000000000000000008152600401611cdc906151ad565b60405180910390fd5b60008211611d28576040517f08c379a0000000000000000000000000000000000000000000000000000000008152600401611d1f9061523f565b60405180910390fd5b6000600f60008681526020019081526020016000206000015414611d81576040517f08c379a0000000000000000000000000000000000000000000000000000000008152600401611d78906152d1565b60405180910390fd5b6000600f600086815260200190815260200160002090508381600001819055508281600101819055504281600201819055506000639f9890bf60e01b86604051602401611dce919061406a565b604051602081830303815290604052907bffffffffffffffffffffffffffffffffffffffffffffffffffffffff19166020820180517bffffffffffffffffffffffffffffffffffffffffffffffffffffffff8381831617835250505050905060006040518060400160405280600267ffffffffffffffff811115611e5557611e5461434a565b5b604051908082528060200260200182016040528015611e835781602001602082028036833780820191505090505b508152602001600267ffffffffffffffff811115611ea457611ea361434a565b5b604051908082528060200260200182016040528015611ed757816020015b6060815260200190600190039081611ec25790505b50815250905060028160000151600081518110611ef757611ef66149c2565b5b60200260200101906005811115611f1157611f106152f1565b5b90816005811115611f2557611f246152f1565b5b8152505060058160000151600181518110611f4357611f426149c2565b5b60200260200101906005811115611f5d57611f5c6152f1565b5b90816005811115611f7157611f706152f1565b5b81525050611f7d612f9a565b8160200151600081518110611f9557611f946149c2565b5b6020026020010181905250611fad42620927c0612fb1565b8160200151600181518110611fc557611fc46149c2565b5b60200260200101819052506000611fdf3084846000613005565b9050808460030181905550873373ffffffffffffffffffffffffffffffffffffffff167fbf1ee3e0a173401ebff8ed8aeafb081b98a51c122125150c351ec460f3282ba98989604051612033929190615320565b60405180910390a35050505050505050565b60007f780e9d63000000000000000000000000000000000000000000000000000000007bffffffffffffffffffffffffffffffffffffffffffffffffffffffff1916827bffffffffffffffffffffffffffffffffffffffffffffffffffffffff191614806120b857506120b7826130b3565b5b9050919050565b6000806120cb83613195565b9050600073ffffffffffffffffffffffffffffffffffffffff168173ffffffffffffffffffffffffffffffffffffffff160361213e57826040517f7e273289000000000000000000000000000000000000000000000000000000008152600401612135919061406a565b60405180910390fd5b80915050919050565b60006004600083815260200190815260200160002060009054906101000a900473ffffffffffffffffffffffffffffffffffffffff169050919050565b600033905090565b61219983838360016131d2565b505050565b6000806121ac858585613397565b9050600073ffffffffffffffffffffffffffffffffffffffff168173ffffffffffffffffffffffffffffffffffffffff16036121f0576121eb846135b1565b61222f565b8473ffffffffffffffffffffffffffffffffffffffff168173ffffffffffffffffffffffffffffffffffffffff161461222e5761222d81856135fa565b5b5b600073ffffffffffffffffffffffffffffffffffffffff168573ffffffffffffffffffffffffffffffffffffffff16036122715761226c846136e5565b6122b0565b8473ffffffffffffffffffffffffffffffffffffffff168173ffffffffffffffffffffffffffffffffffffffff16146122af576122ae85856137b6565b5b5b809150509392505050565b600081600001549050919050565b6002600a540361230e576040517f08c379a000000000000000000000000000000000000000000000000000000000815260040161230590615395565b60405180910390fd5b6002600a81905550565b6001600a81905550565b73eeeeeeeeeeeeeeeeeeeeeeeeeeeeeeeeeeeeeeee73ffffffffffffffffffffffffffffffffffffffff168273ffffffffffffffffffffffffffffffffffffffff160361243157600546146123ac576040517f08c379a00000000000000000000000000000000000000000000000000000000081526004016123a390615401565b60405180910390fd5b737506c12a824d73d9b08564d5afc22c949434755e73ffffffffffffffffffffffffffffffffffffffff166333bb7f9184836040518363ffffffff1660e01b81526004016123fa9190613fd4565b6000604051808303818588803b15801561241357600080fd5b505af1158015612427573d6000803e3d6000fd5b50505050506125d6565b6089461480156124805750732791bca1f2de4661ed88a30c99a7a9449aa8417473ffffffffffffffffffffffffffffffffffffffff168273ffffffffffffffffffffffffffffffffffffffff16145b6124bf576040517f08c379a00000000000000000000000000000000000000000000000000000000081526004016124b69061546d565b60405180910390fd5b8173ffffffffffffffffffffffffffffffffffffffff1663095ea7b3737506c12a824d73d9b08564d5afc22c949434755e856040518363ffffffff1660e01b815260040161250e929190614999565b6020604051808303816000875af115801561252d573d6000803e3d6000fd5b505050506040513d601f19601f8201168201806040525081019061255191906154a2565b50737506c12a824d73d9b08564d5afc22c949434755e73ffffffffffffffffffffffffffffffffffffffff1663fb0f97a88284866040518463ffffffff1660e01b81526004016125a3939291906154cf565b600060405180830381600087803b1580156125bd57600080fd5b505af11580156125d1573d6000803e3d6000fd5b505050505b505050565b6000600f600083815260200190815260200160002060405180608001604052908160008201548152602001600182015481526020016002820154815260200160038201548152505090506000801b8160600151146126bb576126408160600151613841565b600f60008381526020019081526020016000206000808201600090556001820160009055600282016000905560038201600090555050813373ffffffffffffffffffffffffffffffffffffffff167f544a250acc27d4a813ec96cc38467370b7b278c6c157ec7e3f4f40f09e5b697060405160405180910390a35b5050565b6126c76122c9565b60008260050160009054906101000a900473ffffffffffffffffffffffffffffffffffffffff169050600073ffffffffffffffffffffffffffffffffffffffff168173ffffffffffffffffffffffffffffffffffffffff160361275f576040517f08c379a00000000000000000000000000000000000000000000000000000000081526004016127569061511b565b60405180910390fd5b600073ffffffffffffffffffffffffffffffffffffffff168473ffffffffffffffffffffffffffffffffffffffff16036127ce576040517f08c379a00000000000000000000000000000000000000000000000000000000081526004016127c590615552565b60405180910390fd5b60008211612811576040517f08c379a0000000000000000000000000000000000000000000000000000000008152600401612808906155e4565b60405180910390fd5b818173ffffffffffffffffffffffffffffffffffffffff166370a08231866040518263ffffffff1660e01b815260040161284b9190613fd4565b602060405180830381865afa158015612868573d6000803e3d6000fd5b505050506040513d601f19601f8201168201806040525081019061288c9190614935565b10156128cd576040517f08c379a00000000000000000000000000000000000000000000000000000000081526004016128c490615650565b60405180910390fd5b6000600d60008373ffffffffffffffffffffffffffffffffffffffff1673ffffffffffffffffffffffffffffffffffffffff16815260200190815260200160002060009054906101000a900473ffffffffffffffffffffffffffffffffffffffff16905061295e8530858573ffffffffffffffffffffffffffffffffffffffff166138cf909392919063ffffffff16565b8173ffffffffffffffffffffffffffffffffffffffff1663095ea7b382856040518363ffffffff1660e01b8152600401612999929190614999565b6020604051808303816000875af11580156129b8573d6000803e3d6000fd5b505050506040513d601f19601f820116820180604052508101906129dc91906154a2565b508073ffffffffffffffffffffffffffffffffffffffff16636e553f6584306040518363ffffffff1660e01b8152600401612a18929190615670565b6020604051808303816000875af1158015612a37573d6000803e3d6000fd5b505050506040513d601f19601f82011682018060405250810190612a5b9190614935565b5082846003016000828254612a709190614ab2565b925050819055505050612a81612318565b505050565b600073ffffffffffffffffffffffffffffffffffffffff168273ffffffffffffffffffffffffffffffffffffffff1603612af757816040517f5b08ba18000000000000000000000000000000000000000000000000000000008152600401612aee9190613fd4565b60405180910390fd5b80600560008573ffffffffffffffffffffffffffffffffffffffff1673ffffffffffffffffffffffffffffffffffffffff16815260200190815260200160002060008473ffffffffffffffffffffffffffffffffffffffff1673ffffffffffffffffffffffffffffffffffffffff16815260200190815260200160002060006101000a81548160ff0219169083151502179055508173ffffffffffffffffffffffffffffffffffffffff168373ffffffffffffffffffffffffffffffffffffffff167f17307eab39ab6107e8899845ad3d59bd9653f200f220920489ca2b5937696c3183604051612be89190613de9565b60405180910390a3505050565b600073ffffffffffffffffffffffffffffffffffffffff168273ffffffffffffffffffffffffffffffffffffffff1603612c675760006040517f64a0ae92000000000000000000000000000000000000000000000000000000008152600401612c5e9190613fd4565b60405180910390fd5b6000612c758383600061219e565b9050600073ffffffffffffffffffffffffffffffffffffffff168173ffffffffffffffffffffffffffffffffffffffff1614612ce95760006040517f73c6ac6e000000000000000000000000000000000000000000000000000000008152600401612ce09190613fd4565b60405180910390fd5b505050565b6001816000016000828254019250508190555050565b60008373ffffffffffffffffffffffffffffffffffffffff163b1115612eae578273ffffffffffffffffffffffffffffffffffffffff1663150b7a02868685856040518563ffffffff1660e01b8152600401612d6394939291906156ee565b6020604051808303816000875af1925050508015612d9f57506040513d601f19601f82011682018060405250810190612d9c919061574f565b60015b612e23573d8060008114612dcf576040519150601f19603f3d011682016040523d82523d6000602084013e612dd4565b606091505b506000815103612e1b57836040517f64a0ae92000000000000000000000000000000000000000000000000000000008152600401612e129190613fd4565b60405180910390fd5b805181602001fd5b63150b7a0260e01b7bffffffffffffffffffffffffffffffffffffffffffffffffffffffff1916817bffffffffffffffffffffffffffffffffffffffffffffffffffffffff191614612eac57836040517f64a0ae92000000000000000000000000000000000000000000000000000000008152600401612ea39190613fd4565b60405180910390fd5b505b5050505050565b606060405180602001604052806000815250905090565b606060006001612edb84613951565b01905060008167ffffffffffffffff811115612efa57612ef961434a565b5b6040519080825280601f01601f191660200182016040528015612f2c5781602001600182028036833780820191505090505b509050600082602001820190505b600115612f8f578080600190039150507f3031323334353637383961626364656600000000000000000000000000000000600a86061a8153600a8581612f8357612f8261577c565b5b04945060008503612f3a575b819350505050919050565b606060405180602001604052806000815250905090565b606060008383604051602001612fc89291906157d6565b6040516020818303038152906040529050600081604051602001612fed929190615847565b60405160208183030381529060405291505092915050565b60007f000000000000000000000000000000000000000000000000000000000000000073ffffffffffffffffffffffffffffffffffffffff16633323b467868686866040518563ffffffff1660e01b81526004016130669493929190615abe565b6020604051808303816000875af1158015613085573d6000803e3d6000fd5b505050506040513d601f19601f820116820180604052508101906130a99190615b3d565b9050949350505050565b60007f80ac58cd000000000000000000000000000000000000000000000000000000007bffffffffffffffffffffffffffffffffffffffffffffffffffffffff1916827bffffffffffffffffffffffffffffffffffffffffffffffffffffffff1916148061317e57507f5b5e139f000000000000000000000000000000000000000000000000000000007bffffffffffffffffffffffffffffffffffffffffffffffffffffffff1916827bffffffffffffffffffffffffffffffffffffffffffffffffffffffff1916145b8061318e575061318d82613aa4565b5b9050919050565b60006002600083815260200190815260200160002060009054906101000a900473ffffffffffffffffffffffffffffffffffffffff169050919050565b808061320b5750600073ffffffffffffffffffffffffffffffffffffffff168273ffffffffffffffffffffffffffffffffffffffff1614155b1561333f57600061321b846120bf565b9050600073ffffffffffffffffffffffffffffffffffffffff168373ffffffffffffffffffffffffffffffffffffffff161415801561328657508273ffffffffffffffffffffffffffffffffffffffff168173ffffffffffffffffffffffffffffffffffffffff1614155b801561329957506132978184611bc2565b155b156132db57826040517fa9fbf51f0000000000000000000000000000000000000000000000000000000081526004016132d29190613fd4565b60405180910390fd5b811561333d57838573ffffffffffffffffffffffffffffffffffffffff168273ffffffffffffffffffffffffffffffffffffffff167f8c5be1e5ebec7d5bd14f71427d1e84f3dd0314c0f7b2291e5b200ac8c7c3b92560405160405180910390a45b505b836004600085815260200190815260200160002060006101000a81548173ffffffffffffffffffffffffffffffffffffffff021916908373ffffffffffffffffffffffffffffffffffffffff16021790555050505050565b6000806133a384613195565b9050600073ffffffffffffffffffffffffffffffffffffffff168373ffffffffffffffffffffffffffffffffffffffff16146133e5576133e4818486613b0e565b5b600073ffffffffffffffffffffffffffffffffffffffff168173ffffffffffffffffffffffffffffffffffffffff1614613476576134276000856000806131d2565b6001600360008373ffffffffffffffffffffffffffffffffffffffff1673ffffffffffffffffffffffffffffffffffffffff168152602001908152602001600020600082825403925050819055505b600073ffffffffffffffffffffffffffffffffffffffff168573ffffffffffffffffffffffffffffffffffffffff16146134f9576001600360008773ffffffffffffffffffffffffffffffffffffffff1673ffffffffffffffffffffffffffffffffffffffff168152602001908152602001600020600082825401925050819055505b846002600086815260200190815260200160002060006101000a81548173ffffffffffffffffffffffffffffffffffffffff021916908373ffffffffffffffffffffffffffffffffffffffff160217905550838573ffffffffffffffffffffffffffffffffffffffff168273ffffffffffffffffffffffffffffffffffffffff167fddf252ad1be2c89b69c2b068fc378daa952ba7f163c4a11628f55a4df523b3ef60405160405180910390a4809150509392505050565b6008805490506009600083815260200190815260200160002081905550600881908060018154018082558091505060019003906000526020600020016000909190919091505550565b600061360583610f41565b90506000600760008481526020019081526020016000205490506000600660008673ffffffffffffffffffffffffffffffffffffffff1673ffffffffffffffffffffffffffffffffffffffff16815260200190815260200160002090508282146136b15760008160008581526020019081526020016000205490508082600085815260200190815260200160002081905550826007600083815260200190815260200160002081905550505b6007600085815260200190815260200160002060009055806000848152602001908152602001600020600090555050505050565b600060016008805490506136f99190615b6a565b9050600060096000848152602001908152602001600020549050600060088381548110613729576137286149c2565b5b90600052602060002001549050806008838154811061374b5761374a6149c2565b5b90600052602060002001819055508160096000838152602001908152602001600020819055506009600085815260200190815260200160002060009055600880548061379a57613799615b9e565b5b6001900381819060005260206000200160009055905550505050565b600060016137c384610f41565b6137cd9190615b6a565b905081600660008573ffffffffffffffffffffffffffffffffffffffff1673ffffffffffffffffffffffffffffffffffffffff168152602001908152602001600020600083815260200190815260200160002081905550806007600084815260200190815260200160002081905550505050565b7f000000000000000000000000000000000000000000000000000000000000000073ffffffffffffffffffffffffffffffffffffffff1663ee8ca3b5826040518263ffffffff1660e01b815260040161389a9190615bcd565b600060405180830381600087803b1580156138b457600080fd5b505af11580156138c8573d6000803e3d6000fd5b5050505050565b61394b848573ffffffffffffffffffffffffffffffffffffffff166323b872dd868686604051602401613904939291906154cf565b604051602081830303815290604052915060e01b6020820180517bffffffffffffffffffffffffffffffffffffffffffffffffffffffff8381831617835250505050613bd2565b50505050565b600080600090507a184f03e93ff9f4daa797ed6e38ed64bf6a1f01000000000000000083106139af577a184f03e93ff9f4daa797ed6e38ed64bf6a1f01000000000000000083816139a5576139a461577c565b5b0492506040810190505b6d04ee2d6d415b85acef810000000083106139ec576d04ee2d6d415b85acef810000000083816139e2576139e161577c565b5b0492506020810190505b662386f26fc100008310613a1b57662386f26fc100008381613a1157613a1061577c565b5b0492506010810190505b6305f5e1008310613a44576305f5e1008381613a3a57613a3961577c565b5b0492506008810190505b6127108310613a69576127108381613a5f57613a5e61577c565b5b0492506004810190505b60648310613a8c5760648381613a8257613a8161577c565b5b0492506002810190505b600a8310613a9b576001810190505b80915050919050565b60007f01ffc9a7000000000000000000000000000000000000000000000000000000007bffffffffffffffffffffffffffffffffffffffffffffffffffffffff1916827bffffffffffffffffffffffffffffffffffffffffffffffffffffffff1916149050919050565b613b19838383613c74565b613bcd57600073ffffffffffffffffffffffffffffffffffffffff168373ffffffffffffffffffffffffffffffffffffffff1603613b8e57806040517f7e273289000000000000000000000000000000000000000000000000000000008152600401613b85919061406a565b60405180910390fd5b81816040517f177e802f000000000000000000000000000000000000000000000000000000008152600401613bc4929190614999565b60405180910390fd5b505050565b600080602060008451602086016000885af180613bf5576040513d6000823e3d81fd5b3d925060005191505060008214613c10576001811415613c2c565b60008473ffffffffffffffffffffffffffffffffffffffff163b145b15613c6e57836040517f5274afe7000000000000000000000000000000000000000000000000000000008152600401613c659190613fd4565b60405180910390fd5b50505050565b60008073ffffffffffffffffffffffffffffffffffffffff168373ffffffffffffffffffffffffffffffffffffffff1614158015613d2c57508273ffffffffffffffffffffffffffffffffffffffff168473ffffffffffffffffffffffffffffffffffffffff161480613ced5750613cec8484611bc2565b5b80613d2b57508273ffffffffffffffffffffffffffffffffffffffff16613d1383612147565b73ffffffffffffffffffffffffffffffffffffffff16145b5b90509392505050565b6000604051905090565b600080fd5b600080fd5b60007fffffffff0000000000000000000000000000000000000000000000000000000082169050919050565b613d7e81613d49565b8114613d8957600080fd5b50565b600081359050613d9b81613d75565b92915050565b600060208284031215613db757613db6613d3f565b5b6000613dc584828501613d8c565b91505092915050565b60008115159050919050565b613de381613dce565b82525050565b6000602082019050613dfe6000830184613dda565b92915050565b600073ffffffffffffffffffffffffffffffffffffffff82169050919050565b6000819050919050565b6000613e49613e44613e3f84613e04565b613e24565b613e04565b9050919050565b6000613e5b82613e2e565b9050919050565b6000613e6d82613e50565b9050919050565b613e7d81613e62565b82525050565b6000602082019050613e986000830184613e74565b92915050565b600081519050919050565b600082825260208201905092915050565b60005b83811015613ed8578082015181840152602081019050613ebd565b60008484015250505050565b6000601f19601f8301169050919050565b6000613f0082613e9e565b613f0a8185613ea9565b9350613f1a818560208601613eba565b613f2381613ee4565b840191505092915050565b60006020820190508181036000830152613f488184613ef5565b905092915050565b6000819050919050565b613f6381613f50565b8114613f6e57600080fd5b50565b600081359050613f8081613f5a565b92915050565b600060208284031215613f9c57613f9b613d3f565b5b6000613faa84828501613f71565b91505092915050565b6000613fbe82613e04565b9050919050565b613fce81613fb3565b82525050565b6000602082019050613fe96000830184613fc5565b92915050565b613ff881613fb3565b811461400357600080fd5b50565b60008135905061401581613fef565b92915050565b6000806040838503121561403257614031613d3f565b5b600061404085828601614006565b925050602061405185828601613f71565b9150509250929050565b61406481613f50565b82525050565b600060208201905061407f600083018461405b565b92915050565b60008060006060848603121561409e5761409d613d3f565b5b60006140ac86828701614006565b93505060206140bd86828701614006565b92505060406140ce86828701613f71565b9150509250925092565b600060e08201905081810360008301526140f2818a613ef5565b905081810360208301526141068189613ef5565b9050614115604083018861405b565b614122606083018761405b565b61412f608083018661405b565b61413c60a0830185613fc5565b61414960c0830184613dda565b98975050505050505050565b600061416082613e50565b9050919050565b61417081614155565b82525050565b600060208201905061418b6000830184614167565b92915050565b600080604083850312156141a8576141a7613d3f565b5b60006141b685828601613f71565b92505060206141c785828601614006565b9150509250929050565b6000819050919050565b6141e4816141d1565b82525050565b60006080820190506141ff600083018761405b565b61420c602083018661405b565b614219604083018561405b565b61422660608301846141db565b95945050505050565b60006020828403121561424557614244613d3f565b5b600061425384828501614006565b91505092915050565b600061426782613e50565b9050919050565b6142778161425c565b82525050565b6000602082019050614292600083018461426e565b92915050565b6142a181613dce565b81146142ac57600080fd5b50565b6000813590506142be81614298565b92915050565b600080604083850312156142db576142da613d3f565b5b60006142e985828601614006565b92505060206142fa858286016142af565b9150509250929050565b600061430f82613e50565b9050919050565b61431f81614304565b82525050565b600060208201905061433a6000830184614316565b92915050565b600080fd5b600080fd5b7f4e487b7100000000000000000000000000000000000000000000000000000000600052604160045260246000fd5b61438282613ee4565b810181811067ffffffffffffffff821117156143a1576143a061434a565b5b80604052505050565b60006143b4613d35565b90506143c08282614379565b919050565b600067ffffffffffffffff8211156143e0576143df61434a565b5b6143e982613ee4565b9050602081019050919050565b82818337600083830152505050565b6000614418614413846143c5565b6143aa565b90508281526020810184848401111561443457614433614345565b5b61443f8482856143f6565b509392505050565b600082601f83011261445c5761445b614340565b5b813561446c848260208601614405565b91505092915050565b600080600080600060a0868803121561449157614490613d3f565b5b600086013567ffffffffffffffff8111156144af576144ae613d44565b5b6144bb88828901614447565b955050602086013567ffffffffffffffff8111156144dc576144db613d44565b5b6144e888828901614447565b94505060406144f988828901613f71565b935050606061450a88828901613f71565b925050608061451b88828901614006565b9150509295509295909350565b600067ffffffffffffffff8211156145435761454261434a565b5b61454c82613ee4565b9050602081019050919050565b600061456c61456784614528565b6143aa565b90508281526020810184848401111561458857614587614345565b5b6145938482856143f6565b509392505050565b600082601f8301126145b0576145af614340565b5b81356145c0848260208601614559565b91505092915050565b600080600080608085870312156145e3576145e2613d3f565b5b60006145f187828801614006565b945050602061460287828801614006565b935050604061461387828801613f71565b925050606085013567ffffffffffffffff81111561463457614633613d44565b5b6146408782880161459b565b91505092959194509250565b6000806040838503121561466357614662613d3f565b5b600061467185828601613f71565b925050602061468285828601613f71565b9150509250929050565b600080604083850312156146a3576146a2613d3f565b5b60006146b185828601614006565b92505060206146c285828601614006565b9150509250929050565b6000806000606084860312156146e5576146e4613d3f565b5b60006146f386828701613f71565b935050602061470486828701613f71565b925050604061471586828701613f71565b9150509250925092565b7f4e487b7100000000000000000000000000000000000000000000000000000000600052602260045260246000fd5b6000600282049050600182168061476657607f821691505b6020821081036147795761477861471f565b5b50919050565b60006060820190506147946000830186613fc5565b6147a1602083018561405b565b6147ae6040830184613fc5565b949350505050565b7f476f616c20646f6573206e6f7420657869737400000000000000000000000000600082015250565b60006147ec601383613ea9565b91506147f7826147b6565b602082019050919050565b6000602082019050818103600083015261481b816147df565b9050919050565b7f596f7520617265206e6f7420746865206f776e6572206f66207468697320676f60008201527f616c000000000000000000000000000000000000000000000000000000000000602082015250565b600061487e602283613ea9565b915061488982614822565b604082019050919050565b600060208201905081810360008301526148ad81614871565b9050919050565b7f4e6f2066756e647320746f207769746864726177000000000000000000000000600082015250565b60006148ea601483613ea9565b91506148f5826148b4565b602082019050919050565b60006020820190508181036000830152614919816148dd565b9050919050565b60008151905061492f81613f5a565b92915050565b60006020828403121561494b5761494a613d3f565b5b600061495984828501614920565b91505092915050565b6000606082019050614977600083018661405b565b6149846020830185613fc5565b6149916040830184613fc5565b949350505050565b60006040820190506149ae6000830185613fc5565b6149bb602083018461405b565b9392505050565b7f4e487b7100000000000000000000000000000000000000000000000000000000600052603260045260246000fd5b7f4e6f206175746f6d61746564206465706f73697420666f72207468697320676f60008201527f616c000000000000000000000000000000000000000000000000000000000000602082015250565b6000614a4d602283613ea9565b9150614a58826149f1565b604082019050919050565b60006020820190508181036000830152614a7c81614a40565b9050919050565b7f4e487b7100000000000000000000000000000000000000000000000000000000600052601160045260246000fd5b6000614abd82613f50565b9150614ac883613f50565b9250828201905080821115614ae057614adf614a83565b5b92915050565b7f4465706f736974206672657175656e6379206e6f74207265616368656420796560008201527f7400000000000000000000000000000000000000000000000000000000000000602082015250565b6000614b42602183613ea9565b9150614b4d82614ae6565b604082019050919050565b60006020820190508181036000830152614b7181614b35565b9050919050565b7f4175746f6d61746564206465706f73697420657863656564732074686520676f60008201527f616c2074617267657420616d6f756e7400000000000000000000000000000000602082015250565b6000614bd4603083613ea9565b9150614bdf82614b78565b604082019050919050565b60006020820190508181036000830152614c0381614bc7565b9050919050565b7f54617267657420616d6f756e742073686f756c6420626520677265617465722060008201527f7468616e20300000000000000000000000000000000000000000000000000000602082015250565b6000614c66602683613ea9565b9150614c7182614c0a565b604082019050919050565b60006020820190508181036000830152614c9581614c59565b9050919050565b7f54617267657420646174652073686f756c6420626520696e207468652066757460008201527f7572650000000000000000000000000000000000000000000000000000000000602082015250565b6000614cf8602383613ea9565b9150614d0382614c9c565b604082019050919050565b60006020820190508181036000830152614d2781614ceb565b9050919050565b7f4465706f73697420746f6b656e206e6f7420737570706f727465640000000000600082015250565b6000614d64601b83613ea9565b9150614d6f82614d2e565b602082019050919050565b60006020820190508181036000830152614d9381614d57565b9050919050565b60008190508160005260206000209050919050565b60006020601f8301049050919050565b600082821b905092915050565b600060088302614dfc7fffffffffffffffffffffffffffffffffffffffffffffffffffffffffffffffff82614dbf565b614e068683614dbf565b95508019841693508086168417925050509392505050565b6000614e39614e34614e2f84613f50565b613e24565b613f50565b9050919050565b6000819050919050565b614e5383614e1e565b614e67614e5f82614e40565b848454614dcc565b825550505050565b600090565b614e7c614e6f565b614e87818484614e4a565b505050565b5b81811015614eab57614ea0600082614e74565b600181019050614e8d565b5050565b601f821115614ef057614ec181614d9a565b614eca84614daf565b81016020851015614ed9578190505b614eed614ee585614daf565b830182614e8c565b50505b505050565b600082821c905092915050565b6000614f1360001984600802614ef5565b1980831691505092915050565b6000614f2c8383614f02565b9150826002028217905092915050565b614f4582613e9e565b67ffffffffffffffff811115614f5e57614f5d61434a565b5b614f68825461474e565b614f73828285614eaf565b600060209050601f831160018114614fa65760008415614f94578287015190505b614f9e8582614f20565b865550615006565b601f198416614fb486614d9a565b60005b82811015614fdc57848901518255600182019150602085019450602081019050614fb7565b86831015614ff95784890151614ff5601f891682614f02565b8355505b6001600288020188555050505b505050505050565b600060a08201905081810360008301526150288188613ef5565b9050818103602083015261503c8187613ef5565b905061504b604083018661405b565b615058606083018561405b565b6150656080830184613fc5565b9695505050505050565b600081905092915050565b600061508582613e9e565b61508f818561506f565b935061509f818560208601613eba565b80840191505092915050565b60006150b7828561507a565b91506150c3828461507a565b91508190509392505050565b7f496e76616c6964206465706f73697420746f6b656e0000000000000000000000600082015250565b6000615105601583613ea9565b9150615110826150cf565b602082019050919050565b60006020820190508181036000830152615134816150f8565b9050919050565b7f4175746f6d61746564206465706f73697420616d6f756e742073686f756c642060008201527f62652067726561746572207468616e2030000000000000000000000000000000602082015250565b6000615197603183613ea9565b91506151a28261513b565b604082019050919050565b600060208201905081810360008301526151c68161518a565b9050919050565b7f4175746f6d61746564206465706f736974206672657175656e63792073686f7560008201527f6c642062652067726561746572207468616e2030000000000000000000000000602082015250565b6000615229603483613ea9565b9150615234826151cd565b604082019050919050565b600060208201905081810360008301526152588161521c565b9050919050565b7f4175746f6d61746564206465706f73697420616c72656164792065786973747360008201527f20666f72207468697320676f616c000000000000000000000000000000000000602082015250565b60006152bb602e83613ea9565b91506152c68261525f565b604082019050919050565b600060208201905081810360008301526152ea816152ae565b9050919050565b7f4e487b7100000000000000000000000000000000000000000000000000000000600052602160045260246000fd5b6000604082019050615335600083018561405b565b615342602083018461405b565b9392505050565b7f5265656e7472616e637947756172643a207265656e7472616e742063616c6c00600082015250565b600061537f601f83613ea9565b915061538a82615349565b602082019050919050565b600060208201905081810360008301526153ae81615372565b9050919050565b7f4f6e6c79206465706f73697420455448206f6e20676f65726c69000000000000600082015250565b60006153eb601a83613ea9565b91506153f6826153b5565b602082019050919050565b6000602082019050818103600083015261541a816153de565b9050919050565b7f4f6e6c79206465706f7369742055534443206f6e20706f6c79676f6e00000000600082015250565b6000615457601c83613ea9565b915061546282615421565b602082019050919050565b600060208201905081810360008301526154868161544a565b9050919050565b60008151905061549c81614298565b92915050565b6000602082840312156154b8576154b7613d3f565b5b60006154c68482850161548d565b91505092915050565b60006060820190506154e46000830186613fc5565b6154f16020830185613fc5565b6154fe604083018461405b565b949350505050565b7f496e76616c6964206163636f756e742061646472657373000000000000000000600082015250565b600061553c601783613ea9565b915061554782615506565b602082019050919050565b6000602082019050818103600083015261556b8161552f565b9050919050565b7f4465706f73697420616d6f756e742073686f756c64206265206772656174657260008201527f207468616e203000000000000000000000000000000000000000000000000000602082015250565b60006155ce602783613ea9565b91506155d982615572565b604082019050919050565b600060208201905081810360008301526155fd816155c1565b9050919050565b7f496e73756666696369656e742062616c616e6365000000000000000000000000600082015250565b600061563a601483613ea9565b915061564582615604565b602082019050919050565b600060208201905081810360008301526156698161562d565b9050919050565b6000604082019050615685600083018561405b565b6156926020830184613fc5565b9392505050565b600081519050919050565b600082825260208201905092915050565b60006156c082615699565b6156ca81856156a4565b93506156da818560208601613eba565b6156e381613ee4565b840191505092915050565b60006080820190506157036000830187613fc5565b6157106020830186613fc5565b61571d604083018561405b565b818103606083015261572f81846156b5565b905095945050505050565b60008151905061574981613d75565b92915050565b60006020828403121561576557615764613d3f565b5b60006157738482850161573a565b91505092915050565b7f4e487b7100000000000000000000000000000000000000000000000000000000600052601260045260246000fd5b60006fffffffffffffffffffffffffffffffff82169050919050565b6157d0816157ab565b82525050565b60006040820190506157eb60008301856157c7565b6157f860208301846157c7565b9392505050565b600481106158105761580f6152f1565b5b50565b6000819050615821826157ff565b919050565b600061583182615813565b9050919050565b61584181615826565b82525050565b600060408201905061585c6000830185615838565b818103602083015261586e81846156b5565b90509392505050565b600081519050919050565b600082825260208201905092915050565b6000819050602082019050919050565b600681106158b4576158b36152f1565b5b50565b60008190506158c5826158a3565b919050565b60006158d5826158b7565b9050919050565b6158e5816158ca565b82525050565b60006158f783836158dc565b60208301905092915050565b6000602082019050919050565b600061591b82615877565b6159258185615882565b935061593083615893565b8060005b8381101561596157815161594888826158eb565b975061595383615903565b925050600181019050615934565b5085935050505092915050565b600081519050919050565b600082825260208201905092915050565b6000819050602082019050919050565b600082825260208201905092915050565b60006159b682615699565b6159c0818561599a565b93506159d0818560208601613eba565b6159d981613ee4565b840191505092915050565b60006159f083836159ab565b905092915050565b6000602082019050919050565b6000615a108261596e565b615a1a8185615979565b935083602082028501615a2c8561598a565b8060005b85811015615a685784840389528151615a4985826159e4565b9450615a54836159f8565b925060208a01995050600181019050615a30565b50829750879550505050505092915050565b60006040830160008301518482036000860152615a978282615910565b91505060208301518482036020860152615ab18282615a05565b9150508091505092915050565b6000608082019050615ad36000830187613fc5565b8181036020830152615ae581866156b5565b90508181036040830152615af98185615a7a565b9050615b086060830184613fc5565b95945050505050565b615b1a816141d1565b8114615b2557600080fd5b50565b600081519050615b3781615b11565b92915050565b600060208284031215615b5357615b52613d3f565b5b6000615b6184828501615b28565b91505092915050565b6000615b7582613f50565b9150615b8083613f50565b9250828203905081811115615b9857615b97614a83565b5b92915050565b7f4e487b7100000000000000000000000000000000000000000000000000000000600052603160045260246000fd5b6000602082019050615be260008301846141db565b9291505056fea2646970667358221220cd42180d7e9894e587f2fc243ff0f224c1e1fba0a39ad35214cdeb3fb958fadb64736f6c6343000818003360e06040523480156200001157600080fd5b5060405162002d5538038062002d5583398181016040528101906200003791906200034f565b816040518060400160405280600a81526020017f56756e61205661756c74000000000000000000000000000000000000000000008152506040518060400160405280600681526020017f765661756c7400000000000000000000000000000000000000000000000000008152508160039081620000b5919062000610565b508060049081620000c7919062000610565b505050600080620000de836200017260201b60201c565b9150915081620000f0576012620000f2565b805b60ff1660a08160ff16815250508273ffffffffffffffffffffffffffffffffffffffff1660808173ffffffffffffffffffffffffffffffffffffffff16815250505050508073ffffffffffffffffffffffffffffffffffffffff1660c08173ffffffffffffffffffffffffffffffffffffffff16815250505050620007ec565b6000806000808473ffffffffffffffffffffffffffffffffffffffff1660405160240160405160208183030381529060405263313ce56760e01b6020820180517bffffffffffffffffffffffffffffffffffffffffffffffffffffffff8381831617835250505050604051620001e9919062000770565b600060405180830381855afa9150503d806000811462000226576040519150601f19603f3d011682016040523d82523d6000602084013e6200022b565b606091505b50915091508180156200024057506020815110155b156200027d576000818060200190518101906200025e9190620007ba565b905060ff801681116200027b576001819450945050505062000287565b505b6000809350935050505b915091565b600080fd5b600073ffffffffffffffffffffffffffffffffffffffff82169050919050565b6000620002be8262000291565b9050919050565b6000620002d282620002b1565b9050919050565b620002e481620002c5565b8114620002f057600080fd5b50565b6000815190506200030481620002d9565b92915050565b60006200031782620002b1565b9050919050565b62000329816200030a565b81146200033557600080fd5b50565b60008151905062000349816200031e565b92915050565b600080604083850312156200036957620003686200028c565b5b60006200037985828601620002f3565b92505060206200038c8582860162000338565b9150509250929050565b600081519050919050565b7f4e487b7100000000000000000000000000000000000000000000000000000000600052604160045260246000fd5b7f4e487b7100000000000000000000000000000000000000000000000000000000600052602260045260246000fd5b600060028204905060018216806200041857607f821691505b6020821081036200042e576200042d620003d0565b5b50919050565b60008190508160005260206000209050919050565b60006020601f8301049050919050565b600082821b905092915050565b600060088302620004987fffffffffffffffffffffffffffffffffffffffffffffffffffffffffffffffff8262000459565b620004a4868362000459565b95508019841693508086168417925050509392505050565b6000819050919050565b6000819050919050565b6000620004f1620004eb620004e584620004bc565b620004c6565b620004bc565b9050919050565b6000819050919050565b6200050d83620004d0565b620005256200051c82620004f8565b84845462000466565b825550505050565b600090565b6200053c6200052d565b6200054981848462000502565b505050565b5b8181101562000571576200056560008262000532565b6001810190506200054f565b5050565b601f821115620005c0576200058a8162000434565b620005958462000449565b81016020851015620005a5578190505b620005bd620005b48562000449565b8301826200054e565b50505b505050565b600082821c905092915050565b6000620005e560001984600802620005c5565b1980831691505092915050565b6000620006008383620005d2565b9150826002028217905092915050565b6200061b8262000396565b67ffffffffffffffff811115620006375762000636620003a1565b5b620006438254620003ff565b6200065082828562000575565b600060209050601f83116001811462000688576000841562000673578287015190505b6200067f8582620005f2565b865550620006ef565b601f198416620006988662000434565b60005b82811015620006c2578489015182556001820191506020850194506020810190506200069b565b86831015620006e25784890151620006de601f891682620005d2565b8355505b6001600288020188555050505b505050505050565b600081519050919050565b600081905092915050565b60005b838110156200072d57808201518184015260208101905062000710565b60008484015250505050565b60006200074682620006f7565b62000752818562000702565b9350620007648185602086016200070d565b80840191505092915050565b60006200077e828462000739565b915081905092915050565b6200079481620004bc565b8114620007a057600080fd5b50565b600081519050620007b48162000789565b92915050565b600060208284031215620007d357620007d26200028c565b5b6000620007e384828501620007a3565b91505092915050565b60805160a05160c05161250f62000846600039600081816105f901528181610abe01528181610fb00152818161103301526110d20152600061084a01526000818161087c015281816115dc01526116c8015261250f6000f3fe608060405234801561001057600080fd5b506004361061018e5760003560e01c806394bf804d116100de578063ba08765211610097578063ce96cb7711610071578063ce96cb7714610535578063d905777e14610565578063dd62ed3e14610595578063ef8b30f7146105c55761018e565b8063ba087652146104a5578063c63d75b6146104d5578063c6e6f592146105055761018e565b806394bf804d146103a957806395d89b41146103d9578063a59a9973146103f7578063a9059cbb14610415578063b3d7f6b914610445578063b460af94146104755761018e565b806323b872dd1161014b578063402d267d11610125578063402d267d146102e95780634cdad506146103195780636e553f651461034957806370a08231146103795761018e565b806323b872dd1461027d578063313ce567146102ad57806338d52e0f146102cb5761018e565b806301e1d1141461019357806306fdde03146101b157806307a2d13a146101cf578063095ea7b3146101ff5780630a28a4771461022f57806318160ddd1461025f575b600080fd5b61019b6105f5565b6040516101a89190611b87565b60405180910390f35b6101b9610728565b6040516101c69190611c32565b60405180910390f35b6101e960048036038101906101e49190611c85565b6107ba565b6040516101f69190611b87565b60405180910390f35b61021960048036038101906102149190611d10565b6107ce565b6040516102269190611d6b565b60405180910390f35b61024960048036038101906102449190611c85565b6107f1565b6040516102569190611b87565b60405180910390f35b610267610805565b6040516102749190611b87565b60405180910390f35b61029760048036038101906102929190611d86565b61080f565b6040516102a49190611d6b565b60405180910390f35b6102b561083e565b6040516102c29190611df5565b60405180910390f35b6102d3610878565b6040516102e09190611e1f565b60405180910390f35b61030360048036038101906102fe9190611e3a565b6108a0565b6040516103109190611b87565b60405180910390f35b610333600480360381019061032e9190611c85565b6108ca565b6040516103409190611b87565b60405180910390f35b610363600480360381019061035e9190611e67565b6108de565b6040516103709190611b87565b60405180910390f35b610393600480360381019061038e9190611e3a565b610960565b6040516103a09190611b87565b60405180910390f35b6103c360048036038101906103be9190611e67565b6109a8565b6040516103d09190611b87565b60405180910390f35b6103e1610a2a565b6040516103ee9190611c32565b60405180910390f35b6103ff610abc565b60405161040c9190611f06565b60405180910390f35b61042f600480360381019061042a9190611d10565b610ae0565b60405161043c9190611d6b565b60405180910390f35b61045f600480360381019061045a9190611c85565b610b03565b60405161046c9190611b87565b60405180910390f35b61048f600480360381019061048a9190611f21565b610b17565b60405161049c9190611b87565b60405180910390f35b6104bf60048036038101906104ba9190611f21565b610b9b565b6040516104cc9190611b87565b60405180910390f35b6104ef60048036038101906104ea9190611e3a565b610c1f565b6040516104fc9190611b87565b60405180910390f35b61051f600480360381019061051a9190611c85565b610c49565b60405161052c9190611b87565b60405180910390f35b61054f600480360381019061054a9190611e3a565b610c5d565b60405161055c9190611b87565b60405180910390f35b61057f600480360381019061057a9190611e3a565b610c79565b60405161058c9190611b87565b60405180910390f35b6105af60048036038101906105aa9190611f74565b610c8b565b6040516105bc9190611b87565b60405180910390f35b6105df60048036038101906105da9190611c85565b610d12565b6040516105ec9190611b87565b60405180910390f35b60007f000000000000000000000000000000000000000000000000000000000000000073ffffffffffffffffffffffffffffffffffffffff1663d15e005361063b610878565b6040518263ffffffff1660e01b81526004016106579190611e1f565b602060405180830381865afa158015610674573d6000803e3d6000fd5b505050506040513d601f19601f820116820180604052508101906106989190611fc9565b6106a0610878565b73ffffffffffffffffffffffffffffffffffffffff166370a08231306040518263ffffffff1660e01b81526004016106d89190611e1f565b602060405180830381865afa1580156106f5573d6000803e3d6000fd5b505050506040513d601f19601f820116820180604052508101906107199190611fc9565b6107239190612025565b905090565b60606003805461073790612088565b80601f016020809104026020016040519081016040528092919081815260200182805461076390612088565b80156107b05780601f10610785576101008083540402835291602001916107b0565b820191906000526020600020905b81548152906001019060200180831161079357829003601f168201915b5050505050905090565b60006107c7826000610d26565b9050919050565b6000806107d9610d7f565b90506107e6818585610d87565b600191505092915050565b60006107fe826001610d99565b9050919050565b6000600254905090565b60008061081a610d7f565b9050610827858285610df2565b610832858585610e86565b60019150509392505050565b6000610848610f7a565b7f000000000000000000000000000000000000000000000000000000000000000061087391906120b9565b905090565b60007f0000000000000000000000000000000000000000000000000000000000000000905090565b60007fffffffffffffffffffffffffffffffffffffffffffffffffffffffffffffffff9050919050565b60006108d7826000610d26565b9050919050565b6000806108ea836108a0565b905080841115610935578284826040517f79012fb200000000000000000000000000000000000000000000000000000000815260040161092c939291906120ee565b60405180910390fd5b600061094085610d12565b905061095561094d610d7f565b858784610f7f565b809250505092915050565b60008060008373ffffffffffffffffffffffffffffffffffffffff1673ffffffffffffffffffffffffffffffffffffffff168152602001908152602001600020549050919050565b6000806109b483610c1f565b9050808411156109ff578284826040517f284ff6670000000000000000000000000000000000000000000000000000000081526004016109f6939291906120ee565b60405180910390fd5b6000610a0a85610b03565b9050610a1f610a17610d7f565b858388610f7f565b809250505092915050565b606060048054610a3990612088565b80601f0160208091040260200160405190810160405280929190818152602001828054610a6590612088565b8015610ab25780601f10610a8757610100808354040283529160200191610ab2565b820191906000526020600020905b815481529060010190602001808311610a9557829003601f168201915b5050505050905090565b7f000000000000000000000000000000000000000000000000000000000000000081565b600080610aeb610d7f565b9050610af8818585610e86565b600191505092915050565b6000610b10826001610d26565b9050919050565b600080610b2383610c5d565b905080851115610b6e578285826040517ffe9cceec000000000000000000000000000000000000000000000000000000008152600401610b65939291906120ee565b60405180910390fd5b6000610b79866107f1565b9050610b8f610b86610d7f565b868689856110d0565b80925050509392505050565b600080610ba783610c79565b905080851115610bf2578285826040517fb94abeec000000000000000000000000000000000000000000000000000000008152600401610be9939291906120ee565b60405180910390fd5b6000610bfd866108ca565b9050610c13610c0a610d7f565b8686848a6110d0565b80925050509392505050565b60007fffffffffffffffffffffffffffffffffffffffffffffffffffffffffffffffff9050919050565b6000610c56826000610d99565b9050919050565b6000610c72610c6b83610960565b6000610d26565b9050919050565b6000610c8482610960565b9050919050565b6000600160008473ffffffffffffffffffffffffffffffffffffffff1673ffffffffffffffffffffffffffffffffffffffff16815260200190815260200160002060008373ffffffffffffffffffffffffffffffffffffffff1673ffffffffffffffffffffffffffffffffffffffff16815260200190815260200160002054905092915050565b6000610d1f826000610d99565b9050919050565b6000610d776001610d356105f5565b610d3f9190612025565b610d47610f7a565b600a610d539190612258565b610d5b610805565b610d659190612025565b848661118c909392919063ffffffff16565b905092915050565b600033905090565b610d9483838360016111db565b505050565b6000610dea610da6610f7a565b600a610db29190612258565b610dba610805565b610dc49190612025565b6001610dce6105f5565b610dd89190612025565b848661118c909392919063ffffffff16565b905092915050565b6000610dfe8484610c8b565b90507fffffffffffffffffffffffffffffffffffffffffffffffffffffffffffffffff8114610e805781811015610e70578281836040517ffb8f41b2000000000000000000000000000000000000000000000000000000008152600401610e67939291906120ee565b60405180910390fd5b610e7f848484840360006111db565b5b50505050565b600073ffffffffffffffffffffffffffffffffffffffff168373ffffffffffffffffffffffffffffffffffffffff1603610ef85760006040517f96c6fd1e000000000000000000000000000000000000000000000000000000008152600401610eef9190611e1f565b60405180910390fd5b600073ffffffffffffffffffffffffffffffffffffffff168273ffffffffffffffffffffffffffffffffffffffff1603610f6a5760006040517fec442f05000000000000000000000000000000000000000000000000000000008152600401610f619190611e1f565b60405180910390fd5b610f758383836113b2565b505050565b600090565b610f8b848484846115d7565b610f93610878565b73ffffffffffffffffffffffffffffffffffffffff1663095ea7b37f0000000000000000000000000000000000000000000000000000000000000000846040518363ffffffff1660e01b8152600401610fed9291906122a3565b6020604051808303816000875af115801561100c573d6000803e3d6000fd5b505050506040513d601f19601f8201168201806040525081019061103091906122f8565b507f000000000000000000000000000000000000000000000000000000000000000073ffffffffffffffffffffffffffffffffffffffff1663e8eda9df611075610878565b843060006040518563ffffffff1660e01b8152600401611098949392919061236e565b600060405180830381600087803b1580156110b257600080fd5b505af11580156110c6573d6000803e3d6000fd5b5050505050505050565b7f000000000000000000000000000000000000000000000000000000000000000073ffffffffffffffffffffffffffffffffffffffff166369328dec611114610878565b84306040518463ffffffff1660e01b8152600401611134939291906123b3565b6020604051808303816000875af1158015611153573d6000803e3d6000fd5b505050506040513d601f19601f820116820180604052508101906111779190611fc9565b50611185858585858561167a565b5050505050565b60006111bc61119a83611773565b80156111b75750600084806111b2576111b16123ea565b5b868809115b6117a1565b6111c78686866117ad565b6111d19190612025565b9050949350505050565b600073ffffffffffffffffffffffffffffffffffffffff168473ffffffffffffffffffffffffffffffffffffffff160361124d5760006040517fe602df050000000000000000000000000000000000000000000000000000000081526004016112449190611e1f565b60405180910390fd5b600073ffffffffffffffffffffffffffffffffffffffff168373ffffffffffffffffffffffffffffffffffffffff16036112bf5760006040517f94280d620000000000000000000000000000000000000000000000000000000081526004016112b69190611e1f565b60405180910390fd5b81600160008673ffffffffffffffffffffffffffffffffffffffff1673ffffffffffffffffffffffffffffffffffffffff16815260200190815260200160002060008573ffffffffffffffffffffffffffffffffffffffff1673ffffffffffffffffffffffffffffffffffffffff1681526020019081526020016000208190555080156113ac578273ffffffffffffffffffffffffffffffffffffffff168473ffffffffffffffffffffffffffffffffffffffff167f8c5be1e5ebec7d5bd14f71427d1e84f3dd0314c0f7b2291e5b200ac8c7c3b925846040516113a39190611b87565b60405180910390a35b50505050565b600073ffffffffffffffffffffffffffffffffffffffff168373ffffffffffffffffffffffffffffffffffffffff16036114045780600260008282546113f89190612025565b925050819055506114d7565b60008060008573ffffffffffffffffffffffffffffffffffffffff1673ffffffffffffffffffffffffffffffffffffffff16815260200190815260200160002054905081811015611490578381836040517fe450d38c000000000000000000000000000000000000000000000000000000008152600401611487939291906120ee565b60405180910390fd5b8181036000808673ffffffffffffffffffffffffffffffffffffffff1673ffffffffffffffffffffffffffffffffffffffff16815260200190815260200160002081905550505b600073ffffffffffffffffffffffffffffffffffffffff168273ffffffffffffffffffffffffffffffffffffffff1603611520578060026000828254039250508190555061156d565b806000808473ffffffffffffffffffffffffffffffffffffffff1673ffffffffffffffffffffffffffffffffffffffff168152602001908152602001600020600082825401925050819055505b8173ffffffffffffffffffffffffffffffffffffffff168373ffffffffffffffffffffffffffffffffffffffff167fddf252ad1be2c89b69c2b068fc378daa952ba7f163c4a11628f55a4df523b3ef836040516115ca9190611b87565b60405180910390a3505050565b6116037f000000000000000000000000000000000000000000000000000000000000000085308561189b565b61160d838261191d565b8273ffffffffffffffffffffffffffffffffffffffff168473ffffffffffffffffffffffffffffffffffffffff167fdcbc1c05240f31ff3ad067ef1ee35ce4997762752e3a095284754544f4c709d7848460405161166c929190612419565b60405180910390a350505050565b8273ffffffffffffffffffffffffffffffffffffffff168573ffffffffffffffffffffffffffffffffffffffff16146116b9576116b8838683610df2565b5b6116c3838261199f565b6116ee7f00000000000000000000000000000000000000000000000000000000000000008584611a21565b8273ffffffffffffffffffffffffffffffffffffffff168473ffffffffffffffffffffffffffffffffffffffff168673ffffffffffffffffffffffffffffffffffffffff167ffbde797d201c681b91056529119e0b02407c7bb96a4a2c75c01fc9667232c8db8585604051611764929190612419565b60405180910390a45050505050565b60006001600283600381111561178c5761178b612442565b5b6117969190612471565b60ff16149050919050565b60008115159050919050565b60008083850290506000801985870982811083820303915050600081036117e8578382816117de576117dd6123ea565b5b0492505050611894565b808411611808576118076118026000861460126011611aa0565b611aba565b5b600084868809905082811182039150808303925060008560000386169050808604955080840493506001818260000304019050808302841793506000600287600302189050808702600203810290508087026002038102905080870260020381029050808702600203810290508087026002038102905080870260020381029050808502955050505050505b9392505050565b611917848573ffffffffffffffffffffffffffffffffffffffff166323b872dd8686866040516024016118d0939291906124a2565b604051602081830303815290604052915060e01b6020820180517bffffffffffffffffffffffffffffffffffffffffffffffffffffffff8381831617835250505050611acc565b50505050565b600073ffffffffffffffffffffffffffffffffffffffff168273ffffffffffffffffffffffffffffffffffffffff160361198f5760006040517fec442f050000000000000000000000000000000000000000000000000000000081526004016119869190611e1f565b60405180910390fd5b61199b600083836113b2565b5050565b600073ffffffffffffffffffffffffffffffffffffffff168273ffffffffffffffffffffffffffffffffffffffff1603611a115760006040517f96c6fd1e000000000000000000000000000000000000000000000000000000008152600401611a089190611e1f565b60405180910390fd5b611a1d826000836113b2565b5050565b611a9b838473ffffffffffffffffffffffffffffffffffffffff1663a9059cbb8585604051602401611a549291906122a3565b604051602081830303815290604052915060e01b6020820180517bffffffffffffffffffffffffffffffffffffffffffffffffffffffff8381831617835250505050611acc565b505050565b6000611aab846117a1565b82841802821890509392505050565b634e487b71600052806020526024601cfd5b600080602060008451602086016000885af180611aef576040513d6000823e3d81fd5b3d925060005191505060008214611b0a576001811415611b26565b60008473ffffffffffffffffffffffffffffffffffffffff163b145b15611b6857836040517f5274afe7000000000000000000000000000000000000000000000000000000008152600401611b5f9190611e1f565b60405180910390fd5b50505050565b6000819050919050565b611b8181611b6e565b82525050565b6000602082019050611b9c6000830184611b78565b92915050565b600081519050919050565b600082825260208201905092915050565b60005b83811015611bdc578082015181840152602081019050611bc1565b60008484015250505050565b6000601f19601f8301169050919050565b6000611c0482611ba2565b611c0e8185611bad565b9350611c1e818560208601611bbe565b611c2781611be8565b840191505092915050565b60006020820190508181036000830152611c4c8184611bf9565b905092915050565b600080fd5b611c6281611b6e565b8114611c6d57600080fd5b50565b600081359050611c7f81611c59565b92915050565b600060208284031215611c9b57611c9a611c54565b5b6000611ca984828501611c70565b91505092915050565b600073ffffffffffffffffffffffffffffffffffffffff82169050919050565b6000611cdd82611cb2565b9050919050565b611ced81611cd2565b8114611cf857600080fd5b50565b600081359050611d0a81611ce4565b92915050565b60008060408385031215611d2757611d26611c54565b5b6000611d3585828601611cfb565b9250506020611d4685828601611c70565b9150509250929050565b60008115159050919050565b611d6581611d50565b82525050565b6000602082019050611d806000830184611d5c565b92915050565b600080600060608486031215611d9f57611d9e611c54565b5b6000611dad86828701611cfb565b9350506020611dbe86828701611cfb565b9250506040611dcf86828701611c70565b9150509250925092565b600060ff82169050919050565b611def81611dd9565b82525050565b6000602082019050611e0a6000830184611de6565b92915050565b611e1981611cd2565b82525050565b6000602082019050611e346000830184611e10565b92915050565b600060208284031215611e5057611e4f611c54565b5b6000611e5e84828501611cfb565b91505092915050565b60008060408385031215611e7e57611e7d611c54565b5b6000611e8c85828601611c70565b9250506020611e9d85828601611cfb565b9150509250929050565b6000819050919050565b6000611ecc611ec7611ec284611cb2565b611ea7565b611cb2565b9050919050565b6000611ede82611eb1565b9050919050565b6000611ef082611ed3565b9050919050565b611f0081611ee5565b82525050565b6000602082019050611f1b6000830184611ef7565b92915050565b600080600060608486031215611f3a57611f39611c54565b5b6000611f4886828701611c70565b9350506020611f5986828701611cfb565b9250506040611f6a86828701611cfb565b9150509250925092565b60008060408385031215611f8b57611f8a611c54565b5b6000611f9985828601611cfb565b9250506020611faa85828601611cfb565b9150509250929050565b600081519050611fc381611c59565b92915050565b600060208284031215611fdf57611fde611c54565b5b6000611fed84828501611fb4565b91505092915050565b7f4e487b7100000000000000000000000000000000000000000000000000000000600052601160045260246000fd5b600061203082611b6e565b915061203b83611b6e565b925082820190508082111561205357612052611ff6565b5b92915050565b7f4e487b7100000000000000000000000000000000000000000000000000000000600052602260045260246000fd5b600060028204905060018216806120a057607f821691505b6020821081036120b3576120b2612059565b5b50919050565b60006120c482611dd9565b91506120cf83611dd9565b9250828201905060ff8111156120e8576120e7611ff6565b5b92915050565b60006060820190506121036000830186611e10565b6121106020830185611b78565b61211d6040830184611b78565b949350505050565b60008160011c9050919050565b6000808291508390505b600185111561217c5780860481111561215857612157611ff6565b5b60018516156121675780820291505b808102905061217585612125565b945061213c565b94509492505050565b6000826121955760019050612251565b816121a35760009050612251565b81600181146121b957600281146121c3576121f2565b6001915050612251565b60ff8411156121d5576121d4611ff6565b5b8360020a9150848211156121ec576121eb611ff6565b5b50612251565b5060208310610133831016604e8410600b84101617156122275782820a90508381111561222257612221611ff6565b5b612251565b6122348484846001612132565b9250905081840481111561224b5761224a611ff6565b5b81810290505b9392505050565b600061226382611b6e565b915061226e83611dd9565b925061229b7fffffffffffffffffffffffffffffffffffffffffffffffffffffffffffffffff8484612185565b905092915050565b60006040820190506122b86000830185611e10565b6122c56020830184611b78565b9392505050565b6122d581611d50565b81146122e057600080fd5b50565b6000815190506122f2816122cc565b92915050565b60006020828403121561230e5761230d611c54565b5b600061231c848285016122e3565b91505092915050565b6000819050919050565b600061ffff82169050919050565b600061235861235361234e84612325565b611ea7565b61232f565b9050919050565b6123688161233d565b82525050565b60006080820190506123836000830187611e10565b6123906020830186611b78565b61239d6040830185611e10565b6123aa606083018461235f565b95945050505050565b60006060820190506123c86000830186611e10565b6123d56020830185611b78565b6123e26040830184611e10565b949350505050565b7f4e487b7100000000000000000000000000000000000000000000000000000000600052601260045260246000fd5b600060408201905061242e6000830185611b78565b61243b6020830184611b78565b9392505050565b7f4e487b7100000000000000000000000000000000000000000000000000000000600052602160045260246000fd5b600061247c82611dd9565b915061248783611dd9565b925082612497576124966123ea565b5b828206905092915050565b60006060820190506124b76000830186611e10565b6124c46020830185611e10565b6124d16040830184611b78565b94935050505056fea2646970667358221220390058ea22512e3cd6c5652449948755649608cfe165e08d1e2f116c367de56964736f6c63430008180033",
  "linkReferences": {},
  "deployedLinkReferences": {}
}